:10000000007E00100D030000E5020000FD0200006C
:10001000050300000903000001030000F1020000D5
:10002000F1020000F1020000F1020000F102000004
:10003000F1020000F1020000F10200007D2F00003B
:10004000F1020000F1020000F1020000F1020000E4
:10005000F1020000712D0000F10200009D26000059
:10006000F1020000F1020000F1020000F1020000C4
:10007000F1020000F1020000F1020000F1020000B4
:10008000F1020000F1020000F1020000F1020000A4
:10009000F1020000F1020000E9090000F102000095
:1000A000F1020000F1020000F1020000F102000084
:1000B000F10200006D0D0000F1020000F1020000ED
:0C00C000F1020000F1020000F10200005B
:1000D000014650B14FF0000342F6FC02C1F20002AB
:1000E000136003F101039942FAD870474CF2000201
:1000F000C4F20F02D2F8C43043F40043C2F8C43053
:100100004CF22002C2F20902136843F0005313605C
:10011000136843F4802313607047C0464CF22003F9
:10012000C2F2090359694FF0010202FA00F242EAF1
:1001300001025A617047C0464CF22003C2F2090323
:1001400059694FF0010202FA00F26FEA020202EA74
:1001500001025A617047C04608BB44F20002C4F273
:1001600000024FF002035360A3F10203D36045F68F
:10017000BF5303FB01F393614FF0FF031360A3F13F
:10018000FB035361A3F10303536044F200031A46D7
:10019000C4F20002536813F0010FFBD122E00128E2
:1001A00020D148F20002C4F2000200F101035360C2
:1001B000A3F10203D36045F6BF5303FB01F3936140
:1001C0004FF0FF031360A3F1FB035361A3F103039B
:1001D000536048F200031A46C4F20002536813F059
:1001E000010FFBD17047C04610B50446038833B1F8
:1001F000902B1EBF0023038003202BD10DE040F283
:100200005C50C1F200004FF0640100F0CFFB4FF0F2
:10021000900323804FF001001CE0882918BF0120C3
:1002200018D140F25C50C1F2000000F08DFA0028B5
:10023000EDD04FF0020002F0A1FF47F27830C0F29B
:10024000000000F0A3FF40F25C50C1F2000000F09B
:10025000A5FBDCE710BDC0464FF000007047C0466C
:100260004FF0FF307047C0464FF000007047C04667
:100270004FF001007047C0464FF000007047C04685
:100280004FF0FF307047C0464FF000007047C04647
:100290004FF000007047C04610B502F057F900F06B
:1002A0001BFD00F03BFD01F00BFF00F0FDFB01F03A
:1002B00033FC00F08FFF02F0A5FF02F051FE00F0CA
:1002C0006DF840F21000C1F200004FF0000100F0A4
:1002D00067F947F27030C0F2000000F025FA00F034
:1002E000AFF9FCE7684620F007018D4601B4FEE750
:1002F000684620F007018D4601B4FEE7FEE7C046E0
:10030000FEE7C046FEE7C046FEE7C04640F20002F8
:10031000C1F2000240F25C53C1F200039A4216D2CD
:100320004FF0000240F20000C1F2000047F6801ECC
:10033000C0F2000E40F25C51C1F200011EF8023022
:10034000835402F1010200EB02038B42F6D340F228
:100350005C52C1F2000242F61033C1F200039A422D
:100360000DD240F25C52C1F200024FF0000142F6A1
:100370001033C1F2000302F8011B9A42FBD302F0D2
:10038000E5F8FFF789FFFEE740F27053C1F2000382
:10039000187800F101021A707047C04640F270539D
:1003A000C1F200036FF075021A7002F176025A7002
:1003B0009A705A609A60704740F27053C1F200031D
:1003C0001A7B98781044704730B4054608461446A6
:1003D00040F27053C1F2000393F802C0BCF1200F49
:1003E00008BF012017D040F27052C1F200025378CA
:1003F000634403F01F0353734FEA83014FEA03136F
:10040000C1EB0303134418745C619D610CF101039B
:1004100093704FF0000030BC7047C04668B1837BDA
:1004200003F1FF33DBB2012B9FBF0122C27340F205
:100430007053C1F2000398BF1A737047807B003875
:1004400018BF01207047C0462DE9F04105460F4610
:1004500040F27053C1F20003D3F808805A68131EAB
:1004600018BF012382420CBF002303F0010353B1E4
:100470001268131E18BF012395420CBF002303F01E
:100480000103002BF4D1002A54D02846FFF7D6FFF1
:1004900058B34FF00003AB7340F27053C1F2000346
:1004A0005C685CB14FF08706A54204D02046314617
:1004B0002A4600F041F82468002CF5D1AA68EB1B0D
:1004C00018BF0123002A0CBF002303F0010363B10E
:1004D00040F27053C1F200039D60AB6805F10C005F
:1004E0004FF083014FF00002984740F27053C1F281
:1004F000000359688D4210D140F27053C1F20003DD
:100500002A685A6010E00B68AB4203D019460029F4
:10051000F9D109E02B680B6006E029B10B68AB420A
:1005200018BF1946F3D1F5E740F27053C1F200034A
:10053000C3F80880BDE8F08170B504460D46837BA2
:1005400013F0010F20D08368F3B140F27053C1F271
:10055000000398604FF002038373836800F10C007E
:100560009847A0F10200832D14BF00230123012826
:1005700098BF43F0010323B120462146FFF764FFF3
:1005800002E04FF00103A37370BDC04670B540F2A6
:100590007054C1F20004A568FFF7CEFFA56070BDDE
:1005A00010B58C4640F27053C1F200035A68131E16
:1005B00018BF012382420CBF002303F001030BB9D3
:1005C00011460BE0114609680B1E18BF0123884233
:1005D0000CBF002303F00103002BF4D1814210D0A3
:1005E000026040F27053C1F2000358604FF0010303
:1005F00083734FF0000383814FF081016246FFF760
:10060000C5FF10BD2DE9F04140F27053C1F2000367
:100610004FF000021A735C6884B14FF00107154671
:100620004FF08206E37B33B1A773E5732046314672
:100630002A46FFF781FF2468002CF3D1BDE8F08142
:1006400070B540F27053C1F200031B7B0BB1FFF792
:10065000D9FF40F27053C1F200039D78002D45D0C0
:1006600040F27051C1F200014A784FEA82004FEA2D
:100670000213C0EB03030B441C7C81F890415E69BC
:10068000C1F894619869C1F8980102F1010202F081
:100690001F024A7005F1FF338B70F8B940F27053B6
:1006A000C1F200035A68C3F89C21FAB140F27054B9
:1006B000C1F20004237B0BB1FFF7A4FFD4F89C0127
:1006C00094F89011D4F89421FFF736FFD4F89C31B8
:1006D0001B68C4F89C31002BECD107E0812C04BFCF
:1006E0000123837321463246FFF726FF40F2705301
:1006F000C1F200031A7B9878104470BD10B540F227
:100700007053C1F200039968FFF79EFE10BDC0460A
:1007100010B50346006830B11C46FFF7EFFF54F8F0
:10072000040F0028F9D110BD70B50346006848B128
:100730001C464FF000052946FFF732FF54F8040F1E
:100740000028F8D170BDC046C068D0F1010038BFA4
:10075000002070474368006818447047006870477D
:1007600040F21073C1F200031868003818BF01206E
:100770007047C04610B5FFF7F3FF20B140F2107389
:10078000C1F20003586810BD10B540F21073C1F2F9
:1007900000031B683BB940F21073C1F200034FF035
:1007A00000025A601FE002F0CDFB40F21073C1F26C
:1007B000000319684B680A681344C0EB030E89688C
:1007C00051B14B680A681344C0EB03039E4528BF30
:1007D0009E4689680029F4D140F21073C1F20003EB
:1007E0000EEB00025A6010BD10B5044640F21073C3
:1007F000C1F200031A68904208D140F21073C1F2AE
:10080000000382681A60FFF7BFFF11E082B19368AE
:10081000834218BF1A4604D106E09368A34203D06E
:100820001A46002AF9D103E0A3689360FFF7ACFFF2
:100830004FF00003A360E36010BDC04610B503682D
:100840000B440360FFF7A0FF10BDC04610B540F297
:100850001000C1F20000FFF7E1FD10BD2DE9F047E7
:100860000646038833B1592B1EBF002303800320A3
:1008700061D10CE040F21073C1F200034FF00002AE
:100880001A604FF0590333804FF0010053E087297D
:1008900024D140F21073C1F2000318680028F0D090
:1008A000C168914216D1806828B940F21073C1F234
:1008B00000031860E5E7C3689942F4D040F2107372
:1008C000C1F20003186005E0CB68934212BF0846EE
:1008D0008B68836081680029F6D1D2E78229D0D164
:1008E00040F21077C1F200074FF000094FF088087E
:1008F0003C68002CC5D04D46204602F09FFCA0B1BC
:10090000E06841462246FFF75FFD60B9C4F80C90ED
:1009100015B1A368AB6001E0A3683B60C4F8089020
:10092000FFF732FFE4E7FFF791FFA368002BA8D0A1
:1009300025461C46E0E7BDE8F087C04610B50446F2
:10094000FFF784FFE36883B140F21073C1F2000344
:100950001B6853B19C4205D101E09C4202D1FFF7D4
:1009600013FF11E09B68002BF7D140F27853C1F2DE
:1009700000031B68E36040F21073C1F200031A68C1
:10098000A2601C60FFF700FF10BDC04610B5044612
:1009900002F062FC2046FFF7D1FF10BD10B50446FF
:1009A00002F03CFC2046FFF7C9FF10BD10B504461D
:1009B00002F058FC2046FFF7C1FF10BD44F20002D0
:1009C000C4F20302136823F0FF03136011684FF0B1
:1009D000010303FA00F343EA01031360136843F0D1
:1009E000807313607047C04610B544F20003C4F230
:1009F00003035A684FEA126202F00702586842F68F
:100A00000411C1F2000140F6FF7303EA101341F82C
:100A1000223042F67413C1F200031A6002F10100A1
:100A2000032802DCFFF7CAFF07E04CF22002C2F203
:100A30000902536983F00053536110BD10B44FF0A5
:100A4000000042F6341CC1F2000C014624E000F123
:100A50000100022820D14FF0000242F61410C1F22A
:100A60000000144642F62411C1F2000100EB02031B
:100A70001C6001EB02031C6002F10402102AF5D194
:100A80000FE0196059609960D96002F1010203F129
:100A90001003022AF5D1DAE74FEA401363440A460D
:100AA000EFE710BC7047C04610B54CF20002C4F22C
:100AB0000202536843F4AA135360D36843F07043AF
:100AC000D360536C43F42A135364D36CD3644CF255
:100AD0000002C4F20F02D2F8C43043F48053C2F8CB
:100AE000C430D2F8A83143F08073C2F8A83144F280
:100AF0000001C4F203010A6840F20033C0F220038F
:100B000042EA03020A604FF48073CB604EF2001396
:100B1000CEF200034FF480021A604FF0100283F807
:100B20001623FFF78BFF42F67413C1F200034FF058
:100B3000FF321A604FF00000FFF740FF10BDC046C3
:100B400030B4844642F60413C1F2000353F8205037
:100B500040F21873C1F200031D604FF000025A60AA
:100B600042F61413C1F2000353F8200042F6341485
:100B7000C1F2000414E000F101000128C8BF002008
:100B800002F10102012A0BDD40F21873C1F20003E9
:100B90005A6042F61413C1F2000343F82C001BE024
:100BA0004FEA8003634454F82310C1EB0503B3F507
:100BB0007A7FE0DCC5EB0103B3F57A7FDBDC40F242
:100BC0001873C1F200035A6042F61413C1F2000315
:100BD00043F82C00012A4FDD42F62413C1F2000332
:100BE00053F82C1001F1010243F82C20022ADFBF38
:100BF00042F63412C1F200028B006344DCBF0833BA
:100C000042F8235020DD40F21871C1F2000142F693
:100C10003412C1F200020CF1080352F8233042F8FA
:100C20002C300CF104000CF10C0352F8233042F884
:100C300020304FF002038B6042F62413C1F2000310
:100C40004FF0000243F82C2042F63412C1F20002A9
:100C50000CF1040352F8233052F82C20134440F2D4
:100C60001871C1F200014FF002028A6003EBD373E6
:100C70004FEA63030B6027E042F62413C1F200033E
:100C80004FF0000243F82C2000F1FF3242F614131B
:100C9000C1F2000343F82C20002ABFBF42F6141310
:100CA000C1F20003012243F82C2042F63413C1F2B2
:100CB000000342F61412C1F2000252F82C204FEA4F
:100CC0008202624443F8225040F21873C1F20003DA
:100CD000186830BC7047C0464CF20002C4F20202F1
:100CE000136923F0FF0313614CF24002C2F20902C0
:100CF00013889BB243F00F031380938A23F00F03F2
:100D00004FEA03434FEA1343938242F67813C1F24A
:100D100000034FF007021A707047C0464CF2000201
:100D2000C4F20F02D2F8C43043F48033C2F8C430A6
:100D3000D2F8AC3143F08063C2F8AC3140F200022B
:100D4000C4F20B02137A03F0F3031372137A43F025
:100D5000010313724EF20013CEF200034FF0005263
:100D60001A604FF0080283F81D23704740F2000319
:100D7000C4F20B031A7A02F0F7021A7242F67813E1
:100D8000C1F200031B78D3B94CF24003C2F209034D
:100D90004FF009021A8340F20002C4F20B02137AE8
:100DA00043F009031372D36803F52F73136042F6FF
:100DB0007813C1F200034FF001021A704EE0012BCC
:100DC00001BF4CF24003C2F2090301229A8304BF1F
:100DD00008221A8342D0022B01BF4CF24003C2F218
:100DE00009030A221A8339D0032B1AD14CF240038B
:100DF000C2F209034FF00A021A8340F20002C4F261
:100E00000B02137A43F009031372D36803F52F73AF
:100E1000136042F67813C1F200034FF004021A7017
:100E20001CE0042B01BF4CF24003C2F2090308226C
:100E30009A8304BF02221A8310D0052B01BF4CF203
:100E40004003C2F2090306221A8307D0062B01BF12
:100E50004CF24003C2F2090305221A837047C046D0
:100E6000014600282AD14CF24003C2F209039B8AB2
:100E700013F0020F1FBF4CF24003C2F2090302221B
:100E80009A8301BF4CF24003C2F2090301221A8384
:100E90004CF24003C2F209039B8A13F0040F1FBFF8
:100EA0004CF24003C2F2090304229A8301BF4CF2C0
:100EB0004003C2F2090308221A83F9E0012831D164
:100EC0004CF24003C2F209039B8A13F0010F1FBFCB
:100ED0004CF24003C2F2090301229A834CF2400310
:100EE000C2F209039B8A13F0020F1FBF4CF24003AA
:100EF000C2F2090302229A834CF24003C2F20903B0
:100F00009B8A13F0040F1FBF4CF24003C2F2090387
:100F100004229A8301BF4CF24003C2F20903082263
:100F20001A83C5E0A0F10203DBB2012B2AD84CF2F0
:100F30004003C2F209039B8A13F0010F1FBF4CF25A
:100F40004003C2F2090301229A8301BF4CF240031D
:100F5000C2F2090302221A834CF24003C2F20903CF
:100F60009B8A13F0040F1FBF4CF24003C2F2090327
:100F700004229A8301BF4CF24003C2F20903082203
:100F80001A8395E0042831D14CF24003C2F20903E0
:100F90009B8A13F0010F1FBF4CF24003C2F20903FA
:100FA00001229A8301BF4CF24003C2F209030222DC
:100FB0001A834CF24003C2F209039B8A13F0040F18
:100FC0001FBF4CF24003C2F2090304229A834CF281
:100FD0004003C2F209039B8A13F0080F1FBF4CF2B3
:100FE0004003C2F2090308229A8361E005282AD14E
:100FF0004CF24003C2F209039B8A13F0010F1FBF9A
:101000004CF24003C2F2090301229A8301BF4CF261
:101010004003C2F2090302221A834CF24003C2F2D7
:1010200009039B8A13F0080F1FBF4CF24003C2F262
:10103000090308229A8301BF4CF24003C2F209035C
:1010400004221A8334E006282AD14CF24003C2F26B
:1010500009039B8A13F0020F1FBF4CF24003C2F238
:10106000090302229A8301BF4CF24003C2F2090332
:1010700001221A834CF24003C2F209039B8A13F047
:10108000080F1FBF4CF24003C2F2090308229A83E3
:1010900001BF4CF24003C2F2090304221A8307E0A5
:1010A000072801BF4CF24003C2F209030F229A83C2
:1010B00042F67813C1F200031B788B4210D040F245
:1010C0000002C4F20B02137A43F009031372D368CF
:1010D00003F16403136042F67813C1F20003197040
:1010E0007047C0462DE9F04105460C4690461E4625
:1010F000069F06F015F9206005F0FAFE0146284625
:1011000005F040FE0446002E0BDD384605F0F0FEEB
:101110000146204605F040FF044606F1FF36002E4A
:10112000F3DC204606F0FCF8C8F80000BDE8F081CA
:10113000202812D8DFE800F014111111111111113B
:101140001114141111141111111111111111111186
:10115000111111111111111114004FF0000001E0D3
:101160004FF001007047C04640F22473C1F2000303
:101170004FF000021A60704740F22473C1F200037E
:101180001868704710B501F01BFD10BD10B504467E
:1011900040F22473C1F200031B685BB947F2D03000
:1011A000C0F20000FFF7EEFF47F2D430C0F20000BB
:1011B000FFF7E8FF2046FFF7E5FF40F22473C1F296
:1011C00000031B682BB947F2D830C0F20000FFF7CC
:1011D000D9FF10BD10B540F22473C1F200034FF0E7
:1011E00001021A6047F2A433C0F200031868FFF747
:1011F000CDFF10BD10B540F22474C1F200044FF0D1
:101200000103236047F2DC30C0F20000FFF7BEFFAD
:1012100047F22040C0F20000FFF7B8FF47F26440F9
:10122000C0F20000FFF7B2FF47F2A840C0F2000092
:10123000FFF7ACFF47F2EC40C0F20000FFF7A6FF5B
:1012400047F23050C0F20000FFF7A0FF47F27450A1
:10125000C0F20000FFF79AFF47F2B850C0F200005A
:10126000FFF794FF4FF00003236010BD2DE9F0411C
:101270000F460D2840F0B88040F22472C1F20002FF
:10128000B2F8443013444FF000011971A2F8441031
:1012900002F5CA5303F10603197802F5CA5202F1A6
:1012A0000702107801F1010148F21F53C5F2EB1358
:1012B00083FB01234FEA63134FEA83024FEA0313D0
:1012C0001A444FEA82031A44C2EB0101814213D14E
:1012D00040F22473C1F200031B686BB147F2A433E0
:1012E000C0F200035C683846214602F00FFB20463E
:1012F00002F02EFBC0B287E140F22472C1F200027C
:1013000002F5CA5303F10603197802F5CA5202F135
:101310000702107801F1010148F21F53C5F2EB13E7
:1013200083FB01234FEA63134FEA83024FEA03135F
:101330001A444FEA82031A44C2EB0101814207D1E9
:1013400040F22473C1F200031B68002B00F05A81A5
:10135000B24802F0FDFA012803D9B148AF4902F0C2
:10136000D5FA40F22474C1F2000404F5CA5505F11F
:101370000605287804F146034FEA8010184404F16A
:1013800004014FF0400202F0FDFA297801F1010159
:1013900048F21F53C5F2EB1383FB01234FEA63139B
:1013A0004FEA83024FEA03131A444FEA82031A44B6
:1013B000C2EB0101C9B229702A7804F5CA5303F1BE
:1013C00008031A702368002B00F01C81384647F28E
:1013D0001C41C0F200014FF0030202F007FA384648
:1013E00002F0B6FAC0B20FE108281CD140F2247313
:1013F000C1F20003B3F84430002B00F081800846AE
:1014000040F22001C1F2000102F080FA40F22472A1
:10141000C1F20002B2F8443003F1FF33A2F84430C5
:101420004FF00300F0E01B2801BF41F61C03C1F29E
:1014300000030122C3F8942800F0C6805B2813D172
:1014400041F61C03C1F20003D3F89438012B01BF0D
:1014500041F61C03C1F200030222C3F8942808BF1E
:101460005B3840F0A980CFE0412849D141F61C0308
:10147000C1F20003D3F89438022B41D147F2BC6388
:10148000C0F20003664A9A423AD0664B1B78002BA2
:1014900000F0BC80634A137803F1FF33DBB21370B2
:1014A000B4E02846FFF772FE04F10104142CF8D1D1
:1014B00040F22474C1F2000404F1460604F5CA5552
:1014C00005F1080528784FEA8010304402F040FA10
:1014D000A4F84400297804F104044FEA811120465D
:1014E000314402F013FA204602F032FA024638463E
:1014F000214602F047FA204602F02AFAC0B283E001
:10150000422859D141F61C03C1F20003D3F89438A4
:10151000022B51D147F2BC63C0F20003404A9A4209
:101520004AD04FF0000440F22005C1F200052846E1
:10153000FFF72CFE04F10104142CF8D140F22472C0
:10154000C1F2000202F5CA5303F10803197802F54B
:10155000CA5202F10602137899423FBF314A13780A
:101560000133DBB238BF137040F22474C1F20004BF
:1015700004F1460604F5CA5505F1080528784FEA36
:101580008010304402F0E4F9A4F84400297804F112
:1015900004044FEA81112046314402F0B7F9204695
:1015A00002F0D6F902463846214602F0EBF9204611
:1015B00002F0CEF9C0B227E041F61C03C1F20003ED
:1015C0004FF00002C3F8942840F22473C1F20003E4
:1015D000B3F844103E2915D8A0F12003DBB25E2BEE
:1015E00010D840F22473C1F2000303EB0102107122
:1015F00001F10102A3F844201B681BB138704FF0C1
:10160000010001E04FF00000BDE8F0814FF0000460
:1016100040F22005C1F2000543E7C046280700104C
:101620006D2000106C2000102DE9F04F83B040F2C7
:101630002472C1F2000202F5CA5303F106031978BD
:1016400002F5CA5202F107021378994200F0408174
:1016500040F22473C1F2000303F5CA5202F10702FB
:1016600012784FEA8212134493F846704FF0000448
:10167000214640F22475C1F2000505F5CA5606F16F
:10168000070633784FEA83132B44234493F84630FC
:10169000532B30D133784FEA83132B44234493F8F0
:1016A0004730312B27D1337804F102004FEA8313FE
:1016B0002B44034493F84630452B1CD032783378C2
:1016C0004FEA82122A440A444FEA83132B4403440C
:1016D00093F8463082F8463001F1010104F101042B
:1016E000337804F102004FEA83132B44034493F848
:1016F0004630452BE2D104F101043F2CC1DD01F15C
:10170000FF333E2B17D840F22472C1F2000202F5DB
:10171000CA5404F107044FF0000023784FEA831302
:1017200013440B4403F14603187001F1010101F168
:10173000FF333E2BF1D9002F77D042F67C19C1F24E
:1017400000094FF0000A40F22473C1F2000303F1D4
:10175000460BCDF804B0604A13784FEA83130BEBC5
:101760000308D9F808704FF0000503E0A64213D132
:1017700005F1010518F805603046FFF7D9FC30B9CE
:101780007C5D2046FFF7D4FC0028EFD004E0785DB4
:10179000FFF7CEFC00287DD10AF1010A09F10C09FE
:1017A000BAF1060FD5DD13E047F2FC50C0F200009D
:1017B000FFF7ECFC47F21C40C0F20000FFF7E6FC2C
:1017C00033E047F2FC50C0F20000FFF7DFFC2CE0F2
:1017D00040F22473C1F200031B68D3B147F20060EA
:1017E000C0F20000FFF7D2FC3B4B18784FEA8010A4
:1017F000019B1844FFF7CAFC47F21C40C0F20000EE
:10180000FFF7C4FC47F2FC50C0F20000FFF7BEFC3B
:101810000BE047F21460C0F20000FFF7B7FC47F29C
:101820001C40C0F20000FFF7B1FC40F22470C1F28E
:10183000000000F5CA5404F10704217801F1010108
:1018400048F21F53C5F2EB1383FB01234FEA6313E6
:101850004FEA83024FEA03131A444FEA82031A4401
:10186000C2EB0101C9B2217000F5CA5000F10600B7
:10187000027823789A422BD140F22473C1F20003FC
:101880001B682BB347F2A433C0F200039868FFF73C
:101890007DFC1DE040F22474C1F2000404F5CA533B
:1018A00003F10703187842F67C12C1F200024FEAF6
:1018B0008A014FEA0A13C1EB03034FEA8010D358A1
:1018C000019A104498472368002B7FF46DAF78E7A6
:1018D00003B0BDE8F08FC0466B2000102DE9F04149
:1018E00006460D4617460929DCBF01210C461ADDC4
:1018F0004FF001010C464FEA41034FEAC10203EBEE
:10190000020104F1010495FBF1F3092BF3DC1E2C19
:1019100011DD47F22860C0F20000FFF737FC4FF4FA
:1019200091714FF01E044FF0000046F26763C6F25B
:1019300066639C4604E0002CF5D14FF0000211E0F4
:1019400095FBF1F202F130033B5400F1010001FB81
:1019500012558CFB01324FEAE173C3EBA201A042A6
:10196000EED1224607EB02044FF02E032370092E1E
:10197000DCBF012108461ADD4FF0010108464FEA9D
:1019800041034FEAC10203EB020100F1010096FBA3
:10199000F1F3092BF3DC1E280FDD47F22860C0F2BB
:1019A0000000FFF7F3FB4FF491714FF01E0046F279
:1019B00067631D46C6F2666502E00028F7D110E0B5
:1019C00096FBF1F202F1300304F8013F01FB1266CD
:1019D00085FB01324FEAE173C3EBA20110F1FF3046
:1019E000EED1BDE8F081C04610B58CB0044647F298
:1019F000A433C0F200031B7B8DF812300DF11300ED
:101A00004FF000014FF01D0201F03CFF20684FF045
:101A10000A03009303A902AAA3F10703FFF762FBDD
:101A20000DF11204039802992246FFF757FF204652
:101A3000FFF7ACFB0CB010BD70B505460E4609288B
:101A4000DCBF01210C461ADD4FF001010C464FEAC4
:101A500041034FEAC10203EB020104F1010495FBCB
:101A6000F1F3092BF3DC1E2C11DD47F22860C0F2E4
:101A70000000FFF78BFB4FF491714FF01E044FF005
:101A8000000046F26763C6F266639C4602E0002CE3
:101A9000F5D110E095FBF1F202F13003335400F17F
:101AA000010001FB12558CFB01324FEAE173C3EBDD
:101AB000A2018442EED170BD10B588B00DF10204D0
:101AC0002146FFF7B9FF204601F07AF808B010BDB3
:101AD00010B5044640F22473C1F200031B685BB9E1
:101AE00047F2D030C0F20000FFF74CFB47F2D43091
:101AF000C0F20000FFF746FB2046FFF7DDFF40F293
:101B00002473C1F200031B682BB947F2D830C0F22E
:101B10000000FFF737FB10BD10B54FF0000000F0DC
:101B200057FF40F22473C1F2000303F5CA5202F1D9
:101B300007024FF00001117003F5CA5303F10603C9
:101B4000197000F001F810BD42F67C12C1F20002DB
:101B500041F62943C0F20003136047F2CC63C0F2A0
:101B60000003536047F2EC63C0F20003936042F25B
:101B70001103C0F20003D36047F2F463C0F2000324
:101B8000136147F20473C0F20003536141F66173BD
:101B9000C0F20003936147F20C73C0F20003D361FB
:101BA00047F21C73C0F20003136241F6B963C0F23E
:101BB0000003536247F22473C0F20003936247F2BA
:101BC0003473C0F20003D36241F6B953C0F200038C
:101BD000136347F23C73C0F20003536347F24C7344
:101BE000C0F20003936341F67143C0F20003D36374
:101BF00047F25073C0F20003136447F26473C0F2FB
:101C00000003536441F62543C0F20003936447F296
:101C10006873C0F20003D36447F27C73C0F2000320
:101C2000136570477047C0462DE9F0410E4C47F2EE
:101C30008876C0F2000647F21C45C0F200050B4F43
:101C40002068FFF7A3FA3046FFF7A0FA54F8040C17
:101C5000FFF79CFA2846FFF799FA04F10C04BC42FE
:101C6000EED1BDE8F081C04684290010D8290010CB
:101C70002DE9704F82B047F28C70C0F20000FFF780
:101C800085FA42F6E413C1F20003186804F0E0FCA0
:101C900043A5D5E9004522462B4604F03FFD4FF011
:101CA000000A40F2000BC4F23C0B52465B4604F0C3
:101CB00035FD0FF2F409D9E9008942464B4604F09C
:101CC00057FE05F00BF802AE46F8040D3046FFF75C
:101CD0008BFE47F29470C0F20000FFF757FA42F60D
:101CE000D013C1F20003186804F0B2FC22462B4660
:101CF00004F014FD52465B4604F010FD42464B468C
:101D000004F036FE04F0EAFF01903046FFF76CFE67
:101D100047F29C70C0F20000FFF738FA42F6E01379
:101D2000C1F20003186804F093FC22462B4604F02D
:101D3000F5FC02460B4604F03FFB0FF27409D9E9AB
:101D4000008942464B4604F013FE04F0C7FF0190A1
:101D50003046FFF749FE47F2A470C0F20000FFF7DB
:101D600015FA42F6EC13C1F20003186804F070FC97
:101D700022462B4604F0D2FC02460B4604F01CFB24
:101D800042464B4604F0F4FD04F0A8FF01903046B3
:101D9000FFF72AFE02B0BDE8708FC046C046C046BD
:101DA000F2D24D6210580A400000000080FEC74089
:101DB000F6285C8FC25283402DE9704F82B047F203
:101DC000AC70C0F20000FFF7E1F942F6F013C1F287
:101DD0000003186804F03CFC31A5D5E90045224613
:101DE0002B4604F09BFC4FF0000A40F2000BC4F2BB
:101DF0003C0B52465B4604F091FC0FF2AC09D9E96A
:101E0000008942464B4604F0B3FD04F067FF02AE82
:101E100046F8040D3046FFF7E7FD47F2B870C0F210
:101E20000000FFF7B3F942F60023C1F2000318687F
:101E300004F00EFC22462B4604F070FC02460B46D2
:101E400004F0BAFA1AA3D3E9002304F091FD04F0D8
:101E500045FF01903046FFF7C7FD47F2C070C0F262
:101E60000000FFF793F942F6D413C1F2000318689B
:101E700004F0EEFB22462B4604F050FC52465B4633
:101E800004F04CFC42464B4604F072FD04F026FF81
:101E900001903046FFF7A8FD02B0BDE8708FC04644
:101EA000F2D24D6210580A400000000080FEC74088
:101EB000F6285C8FC252834070B50278131E18BF9B
:101EC0000123202A0CBF002303F0010313B94FF0B4
:101ED00000040FE04FF0000101F101010C46425CEB
:101EE000131E18BF0123202A0CBF002303F0010397
:101EF000002BF1D1204401F073FC05464FF00001A6
:101F000005F0FAF920B3284640F20001C4F2F011BE
:101F100005F0E8F9E0B142F6D414C1F20004284615
:101F20004FF20001C4F27F5105F036F840F2000193
:101F3000C4F2400105F030F805F0F2F904F088FB36
:101F400005A3D3E9002304F013FD04F07FFE206015
:101F500070BDC046C046C046941804560E0D57408A
:101F600070B50278131E18BF0123202A0CBF00236E
:101F700003F0010313B94FF000040FE04FF000012C
:101F800001F101010C46425C131E18BF0123202AF7
:101F90000CBF002303F00103002BF1D1204401F01A
:101FA0001FFC05464FF0000105F0A6F928B32846AE
:101FB00040F20001C4F2C00105F094F9E8B142F624
:101FC0000024C1F2000428464FF20001C4F27F5100
:101FD00004F0E2FF04F04EFB09A3D3E9002304F070
:101FE0009DFB04F033FE04F033FB07A3D3E9002389
:101FF00004F0BEFC04F02AFE206070BDC046C0465E
:102000008716D9CEF753C33FF2D24D6210581A400B
:1020100070B50278131E18BF0123202A0CBF0023BD
:1020200003F0010313B94FF000040FE04FF000017B
:1020300001F101010C46425C131E18BF0123202A46
:102040000CBF002303F00103002BF1D1204401F069
:10205000C7FB4FF20001C4F27F5104F09DFF40F234
:102060000001C4F2400104F097FF04F003FB12A347
:10207000D3E9002304F07CFC04F030FE05464FF069
:10208000000105F039F998B142F6D413C1F200030A
:10209000186804F02DFF0146284605F023F938B1F1
:1020A00042F6F014C1F20004284605F039F9206028
:1020B00070BDC046C046C046941804560E0D574029
:1020C00042F6F013C1F200034FF00001196042F62E
:1020D0000023C1F200034FF05D021A6042F6D413F0
:1020E000C1F2000340F602521A6042F6E413C1F254
:1020F0000003196042F6D013C1F20003196042F6E2
:10210000E013C1F20003196042F6EC13C1F20003C0
:10211000196042F60013C1F200034FF001021A6089
:1021200042F6F813C1F20003196042F6DC13C1F263
:102130000003196042F6FC13C1F20003196042F675
:10214000E813C1F2000319607047C04630B442F68C
:102150000013C1F200031A6802F10100186042F690
:10216000F413C1F2000342F6F812C1F2000219683A
:10217000136801EB0305156042F60423C1F2000366
:1021800042F6DC12C1F200021968136801EB030485
:1021900014604CF24003C2F209035B6913F0080FAC
:1021A00006D142F67813C1F200031B78042B0BD141
:1021B00042F6FC11C1F2000142F6D813C1F200034D
:1021C0001B680A6813440B604CF24003C2F2090317
:1021D0005B6913F0020F0BD042F6E811C1F2000167
:1021E00042F6D813C1F200031B680A6813440B605F
:1021F0004BF28953C1F2F84383FB00234FEAE072AC
:10220000C2EB633248F2A063C0F2010303FB120287
:10221000002A47D142F6E412C1F200024BF2895083
:10222000C1F2F84080FB05314FEAE573C3EB61333F
:10223000136042F6D012C1F2000280FB04514FEA53
:10224000E473C3EB6133136042F6E012C1F20002A3
:1022500042F6FC14C1F20004236880FB03514FEAEC
:10226000E373C3EB6133136042F6EC12C1F2000278
:1022700042F6E811C1F200010B6880FB03504FEAFF
:10228000E373C3EB6033136042F6F813C1F200034B
:102290004FF000021A6042F6DC13C1F200031A602C
:1022A00022600A6030BC704710B542F6F013C1F2EC
:1022B00000031A68002A5ADD42F6F413C1F2000343
:1022C000196842F6D413C1F200031B68994204DD79
:1022D0004FF00600FEF7C4FD4DE042F6D813C1F200
:1022E0000003186842F60023C1F200031B689842FD
:1022F00010DD42F60423C1F200031B68994204DD9D
:102300004FF00300FEF7ACFD35E04FF00000FEF7A4
:10231000A7FD30E042F60423C1F200031B689A4295
:1023200012DD8A420BDA0A2804DD4FF00300FEF7C3
:1023300097FD20E04FF00400FEF792FD1BE04FF008
:102340000500FEF78DFD16E08A420BDA0A2804DD4F
:102350004FF00000FEF784FD0DE04FF00100FEF7A6
:102360007FFD08E04FF00200FEF77AFD03E04FF03A
:102370000700FEF775FD10BD30B44CF20003C4F247
:102380000F03D3F888304FEA136303F00303032BE2
:1023900040F08C804CF20003C4F20F03D3F80C31F0
:1023A00003F00303032B00F2CE80DFE803F0022AE0
:1023B00052024CF20003C4F20F03D3F88810D3F892
:1023C0008820D3F8040140F22404C1F200044FEA4B
:1023D00041414FEA514141F20023C0F27A0301FB2F
:1023E00003334FEA124202F0FF0202F10102B3FB93
:1023F000F2F300F0FF0000F10100B3FBF0F3236003
:10240000A1E04CF20003C4F20F03D3F88810D3F814
:102410008820D3F8040140F22404C1F200044FEAFA
:1024200041414FEA514143F20063C0F26E1301FB98
:1024300003334FEA124202F0FF0202F10102B3FB42
:10244000F2F300F0FF0000F10100B3FBF0F32360B2
:1024500079E04CF20003C4F20F03D3F88820D3F8DC
:102460008810D3F8044140F22405C1F200054FEA78
:1024700042424FEA524202F101024FEA82004FEA21
:10248000C213C0EB030313444FEA43234FEA114145
:1024900001F0FF0101F10101B3FBF1F304F0FF04CE
:1024A00004F10104B3FBF4F32B604CE04CF20003A5
:1024B000C4F20F03D3F80C3103F00303032B42D80B
:1024C000DFE803F002182E024CF20003C4F20F03FF
:1024D000D3F8042140F22401C1F2000102F0FF020E
:1024E00002F1010240F60013C0F23D03B3FBF2F328
:1024F0000B6028E04CF20003C4F20F03D3F8042170
:1025000040F22401C1F2000102F0FF0202F10102D7
:1025100041F60033C0F2B703B3FBF2F30B6012E0F5
:102520004CF20003C4F20F03D3F8042140F224015B
:10253000C1F2000102F0FF0202F101024FF4FA437E
:10254000B3FBF2F30B6030BC7047C0464CF20003A3
:10255000C4F20F034FF02002C3F8A0214CF2000197
:102560000A46C4F20F02D2F8A03113F0400FFAD09D
:102570004CF20002C4F20F024FF00303C2F8043120
:102580004FF00100C2F80C0140F26303C0F20503F2
:10259000C2F884304FF0AA01C2F88C104FF05503F6
:1025A000C2F88C30C2F88000C2F88C10C2F88C30AF
:1025B0004CF200010A46C4F20F02D2F8883013F040
:1025C000806FFAD04CF20002C4F20F024FF0030306
:1025D000C2F8803003F1A703C2F88C30A3F1550391
:1025E000C2F88C304CF200010A46C4F20F02D2F855
:1025F000883013F0407FFAD04CF20003C4F20F038E
:102600004FF02302C3F8A4204FF0AA00C3F8AC0097
:102610004FF05501C3F8AC10A2F12202C3F8A0207C
:10262000C3F8AC00C3F8AC104CF200010A46C4F287
:102630000F02D2F8A83013F4806FFAD04CF20002E7
:10264000C4F20F024FF00303C2F8A03003F1A70356
:10265000C2F8AC30A3F15503C2F8AC304CF2000123
:102660000A46C4F20F02D2F8A83013F4407FFAD021
:102670004CF20002C4F20F024FF00001C2F8A811A0
:10268000C2F8AC1148F2DE73C0F22843C2F8C4307D
:10269000C2F8C81143F23A03136070477047C0464E
:1026A00040F22803C1F20003197811B94FF000027B
:1026B00011E04FF00002134640F2280CC1F2000C6A
:1026C000034483F8001402F101039AB213461CF884
:1026D00002100029F4D14FF00003A0F80038A0F850
:1026E0000238A0F80438A0F80628704770B54EF2FA
:1026F0000014CEF200044FF48075C4F8805042F20A
:10270000B400C1F20000FFF7CBFF4CF20001C4F2AD
:102710000F01D1F8C43043F08073C1F8C4304CF2DB
:102720000002C4F20202136923F4702313611369D7
:1027300043F420231361136D23F470231365136F87
:1027400023F440731367D1F8AC3123F4C033C1F8DC
:10275000AC314CF20003C4F209036FF07C021A732F
:1027600002F181021A70A2F104021A71A2F17B0235
:1027700083F8282002F182021A721A7D4FF00302B8
:102780001A7302F102025A6025604FF0180384F8B0
:10279000083340F22803C1F20003A2F104029A7048
:1027A00070BDC04670B54EF20014CEF200044FF07A
:1027B0008005C4F8805042F2B400C1F20000FFF777
:1027C0006FFF4CF20001C4F20F01D1F8C43043F0A6
:1027D0008073C1F8C4304CF20002C4F202021369E3
:1027E00023F470231361136943F420231361136DE1
:1027F00023F470231365136F23F440731367D1F828
:10280000AC3123F4C033C1F8AC3148F20003C4F258
:1028100009036FF07C021A7302F181021A70A2F1AF
:1028200004021A71A2F17B0283F8282002F18202CD
:102830001A721A7D4FF003021A7302F102025A60F3
:1028400025604FF0180384F8073340F22803C1F2E3
:102850000003A2F104029A7070BDC04670B54EF23A
:102860000014CEF200044FF04005C4F8805042F24C
:10287000B400C1F20000FFF713FF4CF20001C4F2F4
:102880000F01D1F8C43043F01003C1F8C4304CF24A
:102890000002C4F2020213691361136943F00A03D0
:1028A0001361136D23F00F031365136F23F00203FD
:1028B0001367D1F8A83123F44073C1F8A83140F26E
:1028C0000003C4F201036FF07C021A7302F181026B
:1028D0001A70A2F104021A7102F185029A62A2F141
:1028E0007E021A721A7D4FF003021A7302F102027D
:1028F0005A6025604FF0180384F8063340F228032D
:10290000C1F20003A2F104029A7070BD70B54EF2DC
:102910000014CEF200044FF02005C4F8805042F2BB
:10292000B400C1F20000FFF7BBFE4CF20001C4F29C
:102930000F01D1F8C43043F00803C1F8C4304CF2A1
:102940000002C4F20202136823F0F003136013685C
:1029500043F050031360136C23F0F0031364936E81
:1029600023F00C039366D1F8A83123F08003C1F85B
:10297000A831D1F8A83143F04003C1F8A8314CF296
:102980000003C4F200036FF07C021A7302F1A2028A
:102990001A70A2F125021A71A2F1090283F8282007
:1029A00002F110021A721A7D4FF003021A7302F13B
:1029B00002025A6025604FF0180384F8053340F294
:1029C0002803C1F20003A2F104029A7070BDC04650
:1029D00010B503280ED8DFE800F00205080BFFF75A
:1029E00095FF07E0FFF73AFF04E0FFF7DBFE01E0A9
:1029F000FFF77CFE10BDC046B0F802389BB213B999
:102A00004FF0000219E0B0F800389BB2C25CB0F899
:102A1000003803F101039BB2A0F80038B0F8003889
:102A20004FEA83534FEA9353A0F80038B0F80238C6
:102A300003F1FF339BB2A0F8023810467047C0463E
:102A400030B40C4611467AB3B0F802389BB25BB38F
:102A50004FF0000C624640F2FF3505E0B0F8023856
:102A60009BB202F101020BB3B0F800389BB2C35C19
:102A7000A354B0F8003803F101039BB2A0F800386A
:102A8000B0F8003805EA0303A0F80038B0F80238BF
:102A900003F1FF339BB2A0F802380CF101035FFA97
:102AA00083FC6145DAD801E04FF0000C604630BC91
:102AB0007047C046B1F802389BB2B3F5806F28BFAB
:102AC000012012D2B1F80038B1F802281A444FEAB6
:102AD00082524FEA92528854B1F8023803F101034E
:102AE0009BB2A1F802384FF00000704730B40546A1
:102AF000007858B3B1F802389BB2B3F5806F3CBF91
:102B00004FF0000C40F2FF3405D31CE0B1F802385E
:102B10009BB2A34217D8B1F80028B1F80238134489
:102B200003EA0403C854B1F8023803F101039BB26D
:102B3000A1F802380CF101031FFA83FC15F80C0010
:102B40000028E3D102E04FF0010001E04FF0000067
:102B500030BC704730B40546007868B3B1F8063829
:102B60009BB2B3F5806F3CBF4FF0000C40F2FF34D6
:102B700005D31EE0B1F806389BB2A34219D8B1F8CC
:102B80000428B1F80638134403EA04030B4483F81D
:102B90000004B1F8063803F101039BB2A1F806382E
:102BA0000CF101031FFA83FC15F80C000028E1D199
:102BB00002E04FF0010001E04FF0000030BC704730
:102BC00010B5037813B94FF000000CE042F2B401E5
:102BD000C1F20001FFF7BEFF4CF20003C4F2000394
:102BE0004FF007025A6010BDB1F806389BB2B3F53A
:102BF000806F28BF012014D2B1F80438B1F806283C
:102C00001A444FEA82524FEA92520A4482F8000470
:102C1000B1F8063803F101039BB2A1F806384FF072
:102C2000000070472DE9F04393B0044689461546ED
:102C30000DF1070640F2FF384FF0000721E0204673
:102C4000FFF7DAFE3146FEF711FB48B112AA02EB9C
:102C5000000303F8417C30462146FFF77BFF10E07C
:102C6000B4F80638B4F804281A4402EA08022244E8
:102C700082F80074B4F8063803F101039BB2A4F89B
:102C80000638B4F802389BB20BBB4946B9F1000FC5
:102C90006AD0B4F806389BB2002B65D04FF0000222
:102CA0004CF20003C4F20903984648F20003C4F250
:102CB00009039C4640F200031F46C4F201074CF290
:102CC00000031E46C4F2000640F2FF300CE0B4F8E8
:102CD00006389BB2C3F580633F2BB0DCD5E7B4F870
:102CE00006389BB2002B3FD0032D24D8DFE805F037
:102CF000020A121BB4F804389BB2234493F8003440
:102D0000337018E0B4F804389BB2234493F80034CD
:102D10003B7010E0B4F804389BB2234493F80034BD
:102D20008CF8003007E0B4F804389BB2234493F8E1
:102D3000003488F80030B4F8043803F101039BB282
:102D4000A4F80438B4F8043800EA0303A4F80438FB
:102D5000B4F8063803F1FF339BB2A4F8063802F149
:102D600001039AB28A42BAD313B0BDE8F083C046D9
:102D700070B54CF20003C4F200039B6803F00F032C
:102D800003F1FF330C2B00F2DB80DFE813F00D00C2
:102D9000280028004100410094009400D900D90087
:102DA000D900D900B200B20042F2B403C1F200036C
:102DB000B3F806389BB23BB94CF20003C4F20003EF
:102DC0004FF005025A60BBE042F2B400C1F20000CD
:102DD0004FF010014FF00002FFF724FFB0E042F285
:102DE000B404C1F2000420464FF00E014FF000027F
:102DF000FFF718FFB4F806389BB2002B40F0A08014
:102E00004CF20003C4F200034FF005025A6097E051
:102E100040F22803C1F200039B7883B142F2B40070
:102E2000C1F200004FF010014FF00002FFF7FAFE70
:102E300040F22803C1F200034FF000029A704CF2F6
:102E40000004C4F20004207842F2B401C1F200018F
:102E5000FFF730FE237D13F0010F24D042F2B403BC
:102E6000C1F20003B3F802389BB2B3F5806F3FBFE5
:102E70004CF200031D46C4F2000542F2B4043CBF0C
:102E8000C1F2000440F2FF3605D30CE0B4F802387A
:102E90009BB2B34207D828782146FFF70BFE2B7D63
:102EA00013F0010FF2D14CF20003C4F200034FF013
:102EB00007025A6044E04CF20003C4F200031B7D99
:102EC00013F0010F3CD042F2B403C1F20003B3F897
:102ED00002389BB2B3F5806F32D24CF20003C4F2D9
:102EE0000003187842F2B401C1F20001FFF7E2FDDD
:102EF00026E04CF20004C4F20004207842F2B4014F
:102F0000C1F20001FFF7D6FD237D13F0010F10D0B1
:102F10004CF200031D46C4F2000542F2B404C1F2B3
:102F2000000428782146FFF7C5FD2B7D13F0010F23
:102F3000F7D14CF20003C4F200034FF007025A60CD
:102F400070BDC04642F6BC03C1F20003186870476A
:102F500042F6BC03C1F20003586870477047C04690
:102F600010B54FF00A0000F043F84FF0010000F0F8
:102F7000A5F84FF0010000F0C3F810BD684620F03E
:102F800007018D4601B500F08FF842F6BC02C1F290
:102F90000002136803F101031360FDF7E1FB50B178
:102FA000FDF7E8FB42F6BC03C1F200031B68984240
:102FB00001D8FDF74BFC40F22C02C1F2000213686D
:102FC00003F1FF33136073B942F6BC02C1F2000291
:102FD000536803F10103536040F22C03C1F2000374
:102FE0004FF064021A60BDE8014085467047C04654
:102FF00070B5064640F22403C1F200031A6844F695
:10300000D353C1F26203A3FB02124FEA92154FF0B1
:103010008070B0FBF5F003F067FF0446304603F024
:1030200063FF0146204604F053F900B1FEE74EF27B
:103030001003CEF200031A6842F004021A6005FB86
:1030400006F202F1FF325A6070BDC04670B50E46FE
:1030500044F6D353C1F26203A3FB00204FEA90155C
:103060004FF08070B0FBF5F003F03EFF04463046B1
:1030700003F03AFF0146204604F02AF900B1FEE7CA
:103080004EF21003CEF200031A6822F004021A6016
:1030900005FB06F202F1FF325A6070BD4EF21003DA
:1030A000CEF20003986870474EF21002CEF2000292
:1030B000136823F4803313607047C04610B504468C
:1030C000012807D947F2C870C0F200004FF0910103
:1030D00000F038F8012C01BF4EF21002CEF20002CF
:1030E000136843F002030FBF13604EF21002CEF2DA
:1030F000000213681CBF23F00203136010BDC0461A
:1031000010B50446012807D947F2C870C0F2000084
:103110004FF07E0100F016F8012C01BF4EF21002B4
:10312000CEF20002136843F001030FBF13604EF2AA
:103130001002CEF2000213681CBF23F001031360DB
:1031400010BDC046FEE7C04610B542F6C403C1F24A
:10315000000318785B7880EA0300C0B200F0C6F87C
:1031600010BDC04610B542F6C403C1F200031A7880
:1031700080EA02021A70FFF7E7FF10BD10B5FFF7F3
:10318000F1FF10BD10B5014642F6C402C1F20002C3
:1031900050786FEA010300EA0303537001EA00006C
:1031A000FFF7D2FF10BDC04610B5014642F6C4037A
:1031B000C1F20003587841EA00025A706FEA000039
:1031C00001EA0000FFF7C0FF10BDC04610B500F0D7
:1031D00051F810BD10B542F6C403C1F200031C78CB
:1031E0005B7884EA03046FEA0404E4B22046FFF744
:1031F000B9FF4FF4C870FFF7B1FE2046FFF7B2FFEA
:1032000010BDC04610B500F0B1F842F6C403C1F2DB
:1032100000034FF000021A705A7010BD0368426834
:10322000134403607047C04670B505684468FFF7F3
:1032300089FE2C44C0EB040070BDC04610B50446A6
:10324000FFF780FE2368C3F10103034460689842DE
:103250002CBF0020012010BD10B50446FFF772FE00
:10326000206010BD10B504464160FFF76BFE206082
:1032700010BDC04642F60923C1F200031B78181E98
:1032800018BF012042F60823C1F200031B7813B1D6
:1032900040F00203D8B2704710B54FF0010000F0C3
:1032A00011F910F4802F06D04FF001004FF4802167
:1032B00000F000F905E04FF001004FF4802100F02C
:1032C000F1F84FF0010000F0FDF810F0005F06D0BB
:1032D0004FF001004FF0005100F0ECF805E04FF026
:1032E00001004FF0005100F0DDF810BD10B50446AC
:1032F00010F0010F0DD04FF001004FF4802100F0CD
:10330000D1F842F60923C1F200034FF001021A700E
:103310000CE04FF001004FF4802100F0CBF842F6B2
:103320000923C1F200034FF001021A7014F0020FDA
:103330000DD04FF001004FF0005100F0B3F842F60D
:103340000823C1F200034FF001021A700CE04FF0A5
:1033500001004FF0005100F0ADF842F60823C1F231
:1033600000034FF000021A7010BDC04610B54FF0B8
:1033700001004FF48021024600F080F84FF0010078
:103380004FF00051024600F079F84FF001004FF481
:10339000802100F08FF84FF001004FF0005100F055
:1033A00089F810BD042809D8DFE800F0030B1015D8
:1033B0001A004CF20000C2F2090015E04FF00000C4
:1033C00012E04CF22000C2F209000DE04CF2400085
:1033D000C2F2090008E04CF26000C2F2090003E00A
:1033E0004CF28000C2F209007047C046042809D898
:1033F000DFE800F0030B10151A004CF20000C2F2D7
:10340000090015E04FF0000012E04CF22000C2F27B
:1034100009000DE04CF24000C2F2090008E04CF255
:103420006000C2F2090003E04CF28000C2F2090021
:103430007047C046042809D8DFE800F0030B1015D8
:103440001A004CF20000C2F2090015E04FF0000033
:1034500012E04CF22000C2F209000DE04CF24000F4
:10346000C2F2090008E04CF26000C2F2090003E079
:103470004CF28000C2F209007047C04670B50D469C
:103480001446FFF78FFF58B124B1036845EA0303E0
:10349000036005E002686FEA050303EA02030360C4
:1034A00070BDC04610B50C46FFF77CFF00B18461CB
:1034B00010BDC04610B50C46FFF774FF00B1C461E3
:1034C00010BDC04610B5FFF76DFF00B1406910BDDB
:1034D00052EA000302BF48F28003C4F202031961FA
:1034E0002BD0022814BF4FF0000C4FF0010C002A23
:1034F00014BF00230CF001032BB148F28003C4F287
:103500000203196319E0012A14BF002201220028D6
:1035100014BF002302F001032BB148F28003C4F270
:103520000203596109E01CEA020F1EBF48F2800342
:10353000C4F20203596300D1FEE7704752EA000368
:1035400001BF48F28003C4F202035B68CB4008BFAE
:1035500003F0010037D0022814BF4FF0000C4FF0E9
:10356000010C002A14BF00230CF001034BB148F2F8
:103570008003C4F202035B6A23FA01F303F0010043
:1035800021E0012A14BF00220122002814BF0023D9
:1035900002F001034BB148F28003C4F202039B68BE
:1035A00023FA01F303F001000DE01CEA020F1FBF34
:1035B00048F28003C4F202039B6ACB4018BF03F0B9
:1035C000010000D1FEE77047034628B948F28003A6
:1035D000C4F20203D96008E0022802BF48F2800367
:1035E000C4F20203D96200D0FEE7704710B5FFF7BE
:1035F00045FF10BD10B5FFF755FF10BD10B5FFF723
:1036000059FF10BD10B5FFF75DFF10BD10B5FFF7F6
:103610005FFF10BD10B5FFF791FF10BD10B5FFF7AC
:10362000D3FF10BD70B50D461446FFF7BBFE58B171
:1036300024B1036945EA0303036105E002696FEA07
:10364000050303EA0203036170BDC04670B50D4671
:1036500016461C46FFF7CAFEE8B164B12DB1438897
:103660009BB246EA0303438015E003889BB246EA17
:10367000030303800FE03DB142886FEA060303EACB
:1036800002039BB2438006E002886FEA060303EA66
:1036900002039BB2038070BD70B50D4616461C46F2
:1036A000FFF7A4FEE8B164B12DB1438A9BB246EAAC
:1036B0000303438215E0038A9BB246EA03030382B5
:1036C0000FE03DB1428A6FEA060303EA02039BB2B0
:1036D000438206E0028A6FEA060303EA02039BB212
:1036E000038270BD70B50C461546FFF77FFE18B11A
:1036F0000CB1458300E0058370BDC04670B50C4633
:103700001546FFF773FE18B10CB1C58300E0858341
:1037100070BDC04610B50C46FFF768FE28B114B165
:10372000C38A98B201E0838A98B210BD70B50D4685
:1037300016461C46FFF77EFE68B134B1032D0AD849
:10374000435D43EA0603435505E0032D9FBF435DF8
:10375000F2431340435570BD70B50D4616461C46E6
:10376000FFF768FE014688B144B1032D0ED800EB87
:103770000502137C43EA0603137407E0032D9FBF81
:1037800043191A7CF1430A4098BF1A7470BDC046B1
:1037900070B50C461546FFF74DFE18B1032C9CBFC3
:1037A00003191D7670BDC04670B50C461546FFF76F
:1037B00041FE18B1032C9CBF03191D7770BDC04694
:1037C00010B50C46FFF736FE30B1032C04D800EBE1
:1037D00004031B7D184601E04FF0000010BDC046F9
:1037E00010B5002101F098F810BDC04670B4144621
:1037F0000F2C06460D4604D945EA060313F0030FC5
:103800000DD04AB14FF0000C11F80C3000F80C301C
:103810000CF1010C9445F7D1304670BC7047A446BA
:103820000B68ACF1100C03604A6842608B688360DF
:10383000CA681031C2601030BCF10F0FF0D8A4F18B
:10384000100303F00F0223F00F031033EC18F118EC
:10385000032A13D94FF0000C54F80C3041F80C3007
:103860000CF1040CCCEB0203032BF5D8131F03F06F
:10387000030223F003030433E418C9180846214661
:10388000BFE7C046032A844630B40446CDB231D9DE
:1038900010F0030F2FD145EA05230F2A88BF944665
:1038A00043EA034188BF234612D9ACF1100C1960DA
:1038B00059609960D9601033BCF10F0FF5D8103AF8
:1038C00022F00F0302F00F021033E018032A10D980
:1038D0004FF0000C40F80C100CF1040CCCEB020380
:1038E000032BF7D8131F03F0030223F00303043361
:1038F000C018844632B1E9B200230CF8031001333A
:103900009A42FAD1204630BC7047C04641EA0003D3
:10391000844613F0030F10B418BF04460FD10446B9
:103920000846096803E044F8041B50F8041FCB4321
:10393000A1F10132134013F0803FF4D00146002280
:103940008B5CA3540132002BFAD1604610BC704747
:1039500010F0030F014618BF00460BD108460B6854
:1039600001E050F8043FA3F10132DB431A4012F0AA
:10397000803FF6D003781BB110F8013F002BFBD13C
:10398000401A704730B4154641EA0002844612F0EE
:10399000030F14BF00230123032D94BF002303F062
:1039A0000103002B2DD0044608460168CB43A1F14A
:1039B0000132134013F0803F05D1043D0430032D44
:1039C00044F8041BF1D822460446BDB123781146C1
:1039D000681E01F8013B53B1023278B114F8013F7F
:1039E0001146013802F8013C0132002BF5D128B113
:1039F00000231A46CA5401339842FBD1604630BCBA
:103A0000704702460C46E0E72DE9F04F8246A1B030
:103A10008B460023049200221D91CDE916231D9CA4
:103A200023782D2B61D8DFE813F04C006000600094
:103A3000600060006000600060006000DB00DB0090
:103A4000DB00DB00DB006000600060006000600005
:103A50006000600060006000600060006000600066
:103A600060006000600060006000DB0060006000DB
:103A70006000600060006000600060006000600046
:103A8000D8006000BB004F46119E4FF00009CDF8F2
:103A90002490CC46452814BF00230123652808BF85
:103AA00043F00103002B40F0B4801946002E40F093
:103AB00009810A9D5CEA050507D1B9F1000F00F004
:103AC000AE820021CDF874B00B91049A0AB11D9B0F
:103AD00013600B9B002B40F08680169917980346C5
:103AE0000846194621B0BDE8F08F00230B932378D8
:103AF000302B60D000250A950C9420782F2840F3B5
:103B0000F785392800F3FB850026B04637460FE0DD
:103B10004FEA48034FEAC8029B181B18A3F130086C
:103B20000136A3191D93A05D2F2811DD39285FDC14
:103B3000082EEDDD0F2EF3DC7B00FA0001369B181A
:103B40001B18A3F13007A3191D93A05D2F28EDDCEE
:103B5000B94611962E2896D1591C1D915A78002EDF
:103B600000F040820021119D10464F468C4609917D
:103B7000A0F130030393092B84BF2E464FF00109B7
:103B800088D81D9C0CF1010C2E46B946039D002DD2
:103B900040F0C18535464F46631C1D936078E7E7CA
:103BA00001220B92621C1D926378002B89D014466F
:103BB0002378302B9ED16378582B00F00784782B24
:103BC00000F0048401341D942378302BFAD0002BAC
:103BD0003FF47BAF01250A958EE700210B91E1E7C9
:103BE000631C1D931BE7179B169903F1004076E7B2
:103BF000452814BF002301234FF00009652808BFA2
:103C000043F001031196CDF82490CC46002B3FF4ED
:103C10004CAF0A9D46EA0C031D433FF452AFDDF85A
:103C200074B00BF101011D919BF801002B2800F0ED
:103C300022842D2800F09B8200210891A0F13003FE
:103C4000092B88BFCDF874B000F2B283302805D1BB
:103C50001D9C01341D9420783028FAD0A0F1310346
:103C6000082B00F2A5831D9BA0F130055C1C1D9460
:103C70000D9358782F280BDC0CE001346B00EA0020
:103C8000A0F130011D949B182078CD182F2801DD5C
:103C90003928F2DD0D9AA11A44F61F629542D4BF6D
:103CA000002301230829C8BF43F00103002B0CBFE8
:103CB00029461146089B002B3FF4F8AE4942002EDE
:103CC0003FF4F7AE119B4046099A102EB4BFB1469F
:103CD0004FF010091D46002B08BF3346891A9B463A
:103CE000109102F0A5FCB9F1090FCDE9160118DD1C
:103CF000A9F1090347F65804C0F20004DB00E418F8
:103D0000D4E9002302F00AFD044638460D4602F0CD
:103D10008FFC02460B462046294602F04DFBCDE9BA
:103D200016010F2E17DC109800283FF4CEAE40F39A
:103D30005185162800F3218547F65804C300C0F2C8
:103D40000004DDE91601E418D4E9002302F0E6FCE2
:103D5000CDE91601B9E61098C9EB06031D18002D30
:103D600040F34A8415F00F030DD047F65804DB00EA
:103D7000C0F20004DDE91601E418D4E9002302F0E2
:103D8000CDFCCDE9160135F00F0340F0A4810025EC
:103D900006950C9950465A463346CDF8008001F0FE
:103DA00025FE1099494202910F900C3005900F9A10
:103DB00050461FAD516801F06BFB0F9B05991A69C6
:103DC000023292000E900C30FFF710FDDDE9162351
:103DD0001EA801905046009501F092FB01211C9015
:103DE000504601F05FFD109900298346C0F2008221
:103DF0000C46894600210F461F9B002BC0F2F6811E
:103E0000C918069A6FF47F75981A1E9A8318AB42E8
:103E1000B8BF00F586620698ACBFC2F13602033225
:103E2000231855189E18B542B4BF2A4632468A4216
:103E3000A8BF0A46002AD8BF884603DDAD1AB61AC5
:103E4000C2EB010887B159463A46504601F074FD6D
:103E50001C9A83465046594601F086FC1C9904463C
:103E6000504601F0FDFA1C94002D05DD50461C99CA
:103E70002A4601F01FFC1C90B9F1000F05D05046F6
:103E80000E994A4601F058FD0E90002E05DD504671
:103E90000E99324601F00EFC0E90B8F1000F05DDD0
:103EA00059465046424601F005FC83461C9950464F
:103EB0000E9A01F081FB0022C1688146C260079121
:103EC000594601F08FF90028C0F2E48200F04883DF
:103ED0004846594601F020FA00224FF0804304463C
:103EE0000D4602F095FE002800F06B81079800282F
:103EF00000F08E8140F200030022C3F6F073DDF87B
:103F00005C8016461F46CDE9182340F2000440F2BB
:103F10000003C7F6F074C7F6E07308EA040440F241
:103F200000059C42C7F6F07500F08C81069AB4F14A
:103F3000D46F8CBF00230123002A0CBF002303F0A1
:103F400001030BB330463946ADA3D3E9002302F099
:103F50005FFE98B13046394602F0A0FE002840F0DE
:103F6000228240F200070026C3F6F077079B002B61
:103F700000F0158230463946CDE9180118AA536879
:103F800003F1D6631B1B5360DDE9160101F04AF90A
:103F9000DDE9182302F0C2FB02460B46DDE91601FB
:103FA00002F00AFACDE91601069DDDF85C8045B9FC
:103FB00040F20003C7F6F07308EA03039C4200F0E6
:103FC0007B8150461C9901F04BFA50460E9901F046
:103FD00047FA5046594601F043FA5046494601F027
:103FE0003FFAE4E6302A1CBF1046B44609D1B44675
:103FF0000C4601341D940CF1010C2278302AF8D0C3
:104000001046A2F13103082B5ED81D9B303ACDF843
:1040100024C04FF0010C1C4603920C93B6E5A0F1AE
:104020004903252B3FF64DAD01A050F823F0C046C3
:104030009F410000C33A0000C33A0000C33A0000A9
:10404000C33A00007B410000C33A0000C33A0000BD
:10405000C33A0000C33A0000C33A0000C33A00006C
:10406000C33A0000C33A0000C33A0000C33A00005C
:10407000C33A0000C33A0000C33A0000C33A00004C
:10408000C33A0000C33A0000C33A0000C33A00003C
:10409000C33A0000C33A0000C33A0000C33A00002C
:1040A000C33A0000C33A0000C33A0000C33A00001C
:1040B0009F410000C33A0000C33A0000C33A000029
:1040C000C33A00007B41000000224F4611924FF09E
:1040D00001090992DEE4B3F59A7F00F3FD821D1118
:1040E000012D40F3F78347F630190024C0F2000990
:1040F0004F4615F0010F07D0DDE91601D7E900237F
:1041000002F00CFBCDE916016D1001340837012DCA
:10411000EFDC179BE4004C44A3F154731793DDE9E3
:104120001601D4E9002302F0F9FA40F20002C7F6C2
:10413000F07240F20003C7F6A043CDE916011799CB
:1041400001EA02029A4200F2C78240F20003C7F677
:1041500090439A4240F276834FF6FF734FF0FF325E
:10416000C7F6EF73002117931692069111E601200E
:1041700008904B1C1D93487860E51D99224A12F85F
:10418000010C002800F081834B78402B02DD5A2B74
:10419000D8BF2033013101328342F0D091E41D9B1E
:1041A0001A4911F8010C002800F053835A78402A6C
:1041B00002DD5A2AD8BF2032013301318242F0D0C9
:1041C0007FE440F20003204629460022C3F6E07354
:1041D00002F0A4FA0F460799064600292ED0304671
:1041E0003946CDE91801DDF85C808EE6E41A08E670
:1041F000029F0024A1463946FEE5C046C046C0469F
:104200000000C0FFFFFFDF412D7800002178000093
:10421000169B002B00F08980012B179A00F0CB80B1
:1042200040F2000140F200070020CBF6F07190460A
:10423000CDE918010026C3F6F07766E6304607F1AF
:104240000041CEE7DDE91623A8F154711791DDE9AD
:104250001601CDE9142300F0E5FFDDE9182302F093
:104260005DFA02460B46DDE9160102F0A5F840F2C0
:104270000002C7F6F0724FF6FF73C7F69F43CDE911
:104280001601179901EA02029A429CBF01F1547388
:1042900017937FF689AE4FF6FF73159AC7F6EF7343
:1042A0009A4200F0EB804FF6FF734FF0FF32C7F6F3
:1042B000EF731692179384E63946304602F0C6FC37
:1042C00002F0C6F902460B463046394602F072F853
:1042D000044607980D4600284DD1169B002B4AD165
:1042E00028F07F4323F47003002B44D1204696A38B
:1042F000D3E9002302F082FC00283FF462AE50466E
:104300001C9901F0ADF850460E9901F0A9F85046FD
:10431000594601F0A5F850460F9901F0A1F8504612
:10432000494601F09DF8FFF7D0BBDDF85C8028F02E
:104330007F43424623F47003002B7FF471AF40F2B9
:104340000003204629460022C3F6F07302F056FC13
:10435000002840F0B68140F20003204629460022A2
:10436000C3F6E07302F0DAF90F46064601F10041A8
:10437000CDE91801C9E52046294675A3D3E90023F4
:1043800002F03CFC0028BAD12046294672A3D3E9AA
:10439000002302F051FC00283FF413AEAFE7304693
:1043A00007F10041E8E502F043F906460F46DDE576
:1043B0000021FFF77BBB002A7FF432AF00220023ED
:1043C0002221CDE91623CAF8001098E70B9840F295
:1043D0003004C1F200041CAB1DA9009301902246D9
:1043E00050461BAB00F074FB10F0070506463FF487
:1043F0006CAB062D3FF465AB1C9A3AB112A821684C
:1044000000F0D2FF50461C9901F02AF81B9A062DA5
:104410000BD8DFE805F02C201B1304202C006FF0D4
:1044200000434FF0FF321793169216F0080F1EBF8D
:10443000179B43F000431793FFF747BB40F200037D
:104440000022C7F6F07316921793EEE7129B139AA9
:1044500016931792E9E7129B02F5866203321693D0
:10446000139B23F4801343EA02531793DDE70023E1
:1044700017931693D9E7002208927AE6149BB3F1BA
:10448000FF3F7FF410AF22231795CAF80030223B7C
:10449000169334E7079B002B40F09380169B002B6C
:1044A00040F08F80179A22F07F4323F47003002B93
:1044B00040F0878040F20003C7F6F07302EA03037E
:1044C000B3F1D66F7DD9D9F814301BB9D9F81030B3
:1044D000012B76DD01224946504601F0EBF85946A2
:1044E000814600F07FFE0028C8BF179A69DD069B51
:1044F000002B00F0D88140F20003C7F6F07302EA07
:104500000303B3F1D66F00F2CE81B3F15C7F7FF687
:1045100055AF40F200030022C3F6501314921593D6
:10452000DDE91601DDE9142302F0F8F8CDE9160102
:10453000179B002B7FF4E3AE169B002B7FF4DFAEBE
:104540002233CAF80030DAE69535A094FFFFCF3F5A
:104550009535A094FFFFDF3F35E5AF350000E03F24
:10456000079D002D00F0298117984FF6FF72C0F2C9
:104570000F0220F07F4323F47003934225D1069A63
:104580001699002A00F0A08140F20003C7F6F073EC
:1045900000EA0303B3F1D46F00F296811B0D4FF0D4
:1045A000FF32C3F16B039A4091420FD140F20003F6
:1045B0000022C7F6F073169200EA030303F5801396
:1045C000179306990029A4D199E6169911F0010FC5
:1045D000F7D0079D002D00F01F81DDE9164520462C
:1045E000294600F01FFE02460B462046294601F0F0
:1045F000E3FECDE91601E4E73FF4C9AB6D4215F0E7
:104600000F030DD047F65804DB00C0F20004DDE9CB
:104610001601E418D4E9002302F0AAF9CDE9160145
:104620002C113FF4B4AB1F2C42DC14F0100318BF64
:104630006A23002C069311DD47F2F875C0F20005DD
:1046400014F0010F07D0DDE91601D5E9002302F0CF
:1046500065F8CDE9160108356410F1D1069BF3B178
:10466000179840F20003C7F6F07300EA03031B0D2E
:10467000C3F16B01002912DD1F2940F342810023A1
:1046800034291693C4BF03F15C73179307DC4FF012
:10469000FF33A1F12002934000EA03031793DDE901
:1046A00016010022002302F09FFA00283FF471ABAC
:1046B000002200232221CDE91623CAF80010FFF7BB
:1046C00004BA40F2000740F200010026C3F6E0778A
:1046D0000020CBF6E0714BE6222340F20002CAF83C
:1046E0000030C7F6F072223B17921693FFF7EDB930
:1046F000002623461196B046B146FFF72BBA4FF07D
:104700000009CDF824904E46CC46C8464F46CDF819
:104710004490FFF7BFB90998BCF1010F60440990BC
:104720001BD0701C06EB0C0105466B1E082BDEBF70
:104730004FEA48024FEAC80302EB030807DD102DD9
:10474000DEBF4FEA49024FEAC90302EB0309013514
:104750008D42EAD1ACF102031E18751C082E4F469B
:104760004DDC4FEA48034FEAC80203999B184FF00B
:10477000000C03EB0108FFF70FBAC6F10F07109901
:1047800007F1160399423FF7E6AA47F65805FC00E1
:10479000C0F20005DDE916012C19D4E9002301F06F
:1047A000BDFF109AD31BDB00ED18D5E9002301F003
:1047B000B5FFCDE91601FFF788B9179A22F07F43BC
:1047C00023F47003002B7FF400AF169900297FF4C7
:1047D000FDAE8CE6109B13F1160FFFF6BCAA47F650
:1047E0005804DB00C0F20004DDE91601E41AD4E944
:1047F000002302F0BDF8CDE91601FFF766B9102DD0
:1048000006DC4FEAC9024FEA49039B18039A9F1836
:104810004FF0000CFFF7C0B9DDE9164520462946E8
:1048200000F000FD02460B462046294601F0C2FD7D
:1048300000220023CDE9160102F0D6F900283FF44A
:10484000C0AEBBE501F15473002217930692FFF747
:10485000A0BA2F4918461D9311F8014C002C36D0F0
:104860004278402A02DD5A2AD8BF20320130013175
:10487000A242F1D001331D9340F200030022C7F69B
:10488000F07316921793FFF720B94B1C1D934A78CB
:10489000282A25D040F200030022CFF6F8731692A2
:1048A0001793FFF712B940F20003C7F6F07302EA5C
:1048B00003034FF0FF32A3F5801316926FEA1353F0
:1048C0006FEA035317937CE64FF0FF326CE6431C0C
:1048D0001D93D1E747F630190024C0F2000918E40F
:1048E0001DA80C4912AA00F053FB0528D2D1139B36
:1048F000129A43F0FE4343F4700317931692FFF7A6
:10490000E4B84FF0FF32169B8A4013401693C6E678
:1049100025780000440000102DE9F04140F25807CE
:10492000C1F2000703460A4619463868FFF76CF8DB
:104930000D46044602F0D2F90021064602F0BEFC04
:1049400060B1204629460022002302F04DF928B923
:104950003A68222313603046BDE8F0814FF6FF71BC
:104960003046C7F67F7102F0D1FC58B14FF6FF73A5
:10497000204629464FF0FF32C7F6EF7302F05CF98C
:104980000028E5D030466FF4000102F0A1FC0028B9
:10499000E1D0204629464FF0FF326FF4801302F039
:1049A0002DF90028D7D13A6822231360D3E7C046F7
:1049B0000A4640F25801C1F20001034610B50868EA
:1049C0001946FFF721F810BD47F6400142F60A20CC
:1049D000C0F2000130221023C1F2000083540133E1
:1049E00011F8012FDBB2002AF8D147F63801613205
:1049F000C0F200011A238354013311F8012FDBB2F6
:104A0000002AF8D147F630014132C0F200011A23E2
:104A10008354013311F8012FDBB2002AF8D170471B
:104A200003694A112DE9F0019A4200F11406074684
:104A3000B44632DA043304329B009200C318821861
:104A40001C1D101D11F01F0530D05368011DC5F14C
:104A5000200833FA05F28C4298BF334617D94FF03D
:104A6000000C0B6803FA08F342EA030346F80C3023
:104A700051F8042B0CF1040CEA408C42F1D8231AB3
:104A8000053B23F00303FB1803F1180C6346CCF835
:104A900000201AB10CF1040300E033469B1B9B106D
:104AA0003B6103B97B61BDE8F0017047844288BF78
:104AB0002A46F2D98358B350043283189C42F9D85D
:104AC000C3431B1923F00303FB181833E6E7C04662
:104AD0002DE9F04F42F60A2785B0C1F20007009396
:104AE00097F83030039002910192002B00F0D980AA
:104AF00002990B689E1C9A78302A40F04581033356
:104B000000201E4613F8012B0130302AF9D0BB5C7F
:104B100042F60A21C1F20001002B54D03278002461
:104B20008B5C314623B111F8012FBB5C002BFAD10D
:104B300088464FF00009D4F1010338BF00232E2A24
:104B400014BF002303F00103002B53D04A7801F176
:104B50000108BB5C002B00F0D581424612F8011F12
:104B60007B5C002BFAD1444690460A46002C00F0AC
:104B70000D81C8EB0403502A4FEA830A2DD198F81F
:104B8000013008F1010C2B2B2FD02D2B14BF4FF02F
:104B9000000B4FF0010B2AD0F95C42F60A22C1F259
:104BA000000211B1192940F3BB804546029A1560F5
:104BB000B9F1000F20D000280CBF062400242046A5
:104BC00005B0BDE8F08F2E2A00F08B803278B04619
:104BD0004FF001099A46502AD1D0702AE5D198F8B1
:104BE000013008F1010C2B2BCFD14FF0000B1CF83A
:104BF000013FD1E70A78B9E708F1FF339B1B072B88
:104C0000D8BF494604DD49465B100131072BFBDC68
:104C1000039800F03DFC4645054600F1140921D2F9
:104C2000002241464C46104608E0FB5C03F00F03AF
:104C30009340184301398E4216D2724611F8013C56
:104C40002E2B08BF9646F5D0202A18BF02F1040E7D
:104C5000EBD144F8040B002011F8013C02464FF060
:104C6000040EE2E74C46002044F8040BC9EB0404B0
:104C7000A4102C6100F062FA019B64011F68211AE4
:104C8000B94274DC67DB002601998B689A450BDD1D
:104C90000398294600F0E4FB0E9A0023A324136036
:104CA0008DE7FFF791FE23E7019B5A68924522DAD0
:104CB000CAEB0208474500F39B800199CB68022BA1
:104CC00000F0EB80032B00F03281012B00F02081FB
:104CD0002946039800F0C4FB0E99002350240B6072
:104CE0006DE7727806F101088B5C002B50D14FF014
:104CF00001099A466FE7012466B10199CB68022B3E
:104D000000F00281032B00F09B80012B00F0D38088
:104D100044F010040E9B00991D60C1F800A04EE7FE
:104D20009CF80130A1F110040CF10105D15C49B9E6
:104D30000AE0E20063009B1815F8012F1039CC1827
:104D4000B95C09B11929F4DD2146BBF1000F00D08F
:104D500061428A442AE77C1A03982946224600F0D9
:104D6000A9FCC4EB0A0A054600F114098BE7CC1B29
:104D70002846214600F040FBF8B906462846214661
:104D8000FFF74EFEA2447FE70020C0E6A24622E7DE
:104D9000302A1CBF414610464CD1414611F8012F24
:104DA000302A1046FAD0BB5C002B43D14FF00109EA
:104DB00044460E4688464846BDE6661E012006F07B
:104DC0001F03721110FA03F304329200AA185168FB
:104DD0000B4208BF0646D1D0012E40F391802846F1
:104DE000711E00F009FB002800F08A800326C5E749
:104DF00008F1FF34B6B101266011012304F01F0150
:104E0000C8EB070759F820208B402846414613423B
:104E100018BF46F00206FFF703FE019A0224D2F8FB
:104E200004A069E7002CE7DD2846214600F0E4FAFB
:104E30000646E1E702463B5C44460E46012071E629
:104E40000F9B002B3FF464AFD5F810804A4600203A
:104E500008F104039B00EB18191D1368B3F1FF3F21
:104E60007ED142F8040B9142F7D8AB684146984591
:104E7000B8BF2E4677DA0B1D354601229B008918F4
:104E8000F31831615A60022C56D02B6998452ADB01
:104E900017F01F041DD121243CE70F9900297FF44E
:104EA00017AF009901236224C9F800300A600E9AF6
:104EB0002B61156083E616F0020F3FF429AFD9F895
:104EC000003046EA030313F0010FBDD144F0100493
:104ED00020E74FEA8803EB18186900F02FF9C4F1B6
:104EE00020039842D7DA01212846FFF799FD019A5D
:104EF0000AF1010A93689A453FF7CAAE212409E7EF
:104F000002263BE7444631E60F9AC2F1010398E7D7
:104F1000B8457FF4DDAE012FC3DD2846791E00F0D1
:104F20006BFA00283FF4D4AE019B5A68B9E70F9B97
:104F3000002B3FF4CDAEB4E701990B68013BBB42B7
:104F400001D02224E6E67B110121043307F01F0281
:104F500091409B00EB185A681142F2D02124D9E607
:104F6000013313608FE769680398013100F090FA0C
:104F70002A6905F10C0102329200064600F10C008C
:104F8000FEF734FC2946039800F06AFA316972E7AB
:104F90002DE9F04F42F60A29C1F2000985B00C460E
:104FA000924699F830300190002B00F0B0802268D2
:104FB00053119B0012F01F0202920AEB0301019AA7
:104FC00018BF0431A1F1040B00235C4641F8043CF6
:104FD0001768D8461D461946039317F8012F002A73
:104FE0002DD019F80230002B2FD1202A46D8039B50
:104FF0009D42F2DD0729CCBF0023012344452CBF8D
:10500000002303F001039BB1C1F10803206821468E
:105010004FEA830CCCF120064A6812FA06F340EA04
:10502000030322FA0CF00B6041F8040F8845F3D813
:1050300054451CD817F8012F0821002AD1D1002D82
:1050400029D1042005B0BDE8F08F013101350829D0
:10505000D8BF226805DD5445BFD90121002244F89C
:10506000042D03F00F0343EA02132360B5E7002287
:10507000039544F8042D1146A046AEE72B1E18BF39
:105080000123292A14BF002303F00103002BD8D0E9
:10509000019A7B1C13600729CCBF002301234445E0
:1050A0002CBF002303F0010393B1C1F10803206872
:1050B00021469D00C5F120064A6812FA06F340EA2F
:1050C000030332FA05F00B6041F8040F8845F3D86A
:1050D000A2451FD2524654F8043BA34542F8043B74
:1050E000F9D2002342F8043B9345FBD2DBF80020C1
:1050F0005AB9DA4518BF594603D11AE004398A452E
:1051000017D051F8043C002BF8D005209AE7FFF7A0
:105110005BFC4CE7029B002BE8D0029ADBF8001006
:10512000C2F120034FF0FF32DA400A40CBF80020F2
:10513000DEE701230520CAF8003083E7030C1B04D7
:10514000BBB1002310F07F4F01D10833000210F0F3
:10515000704F01D10433000110F0404F01D10233F0
:105160008000002803DB10F0804F05D00133184683
:10517000704700041023E5E72023F8E702680146A2
:1051800012F0070009D012F0010F22D112F0020F25
:1051900023D1930802200B601CE013041B0C0BB9F5
:1051A000120C102012F0FF0F01D10830120A12F079
:1051B0000F0F01D10430120912F0030F01D1023098
:1051C000920812F0010F02D1520804D001300A6097
:1051D00000E0002070472020FCE7530801200B600E
:1051E000F8E7C04603690A6910B49C1A11D1131D6F
:1051F00000F1140C9B00C218CB18101D191D50F89B
:10520000042C51F8043C9A4206D1043804398445F0
:10521000F5D3204610BC704738BF4FF0FF34F8D3A9
:105220000124F6E740F20003C7F6F07301EA030336
:10523000A3F15073002B02DD1946002070475B423A
:105240001A15132A07DDA2F114031E2B09DD012311
:1052500000211846F2E74FF40023002053FA02F130
:10526000ECE7C3F11F0201239340F1E703692DE945
:10527000F041043300F114060C4650F823709A00F4
:1052800085183846FFF75AFF0A28C0F1200323602B
:1052900017DCAE42C0F10B0239D255F8043C33FAA8
:1052A00002F137FA02F343F07E5500F1150317FAC5
:1052B00003F345F4E00541EA030420462946BDE82E
:1052C000F081AE422CBF4FF0000E55F804EDB0F166
:1052D0000B0202BF47F07E5545F4E0057446ECD062
:1052E000B542C2F1200114D955F8043C33FA01F05B
:1052F00017FA02F32EFA01F143F07E530EFA02F28E
:1053000043F4E00340EA020443EA0105D5E7002143
:10531000C7E70020ECE7C0462DE9F04383B00C4618
:1053200001A90546FFF7A2FF06460F46204669463B
:10533000FFF79CFF009A2B69894601998046891ADC
:1053400022699B1A5B01C91800290ADD0B05DF19C8
:105350003046394642464B4601F00AFB03B0BDE8F1
:10536000F0834B421B059944F2E7C046172810B55D
:1053700004460FDD40F200010020C3F6F07140F258
:1053800000030022C4F22403013C01F0C7F9002C01
:10539000F5DC10BD47F65803C200C0F200039B18AD
:1053A000D3E90001F5E7C0461369013930B404338D
:1053B000491102F1140C01319B00D31815468900E4
:1053C0001A1D441894450ED200215CF80130435058
:1053D00004310CEB01039A42F7D8531B153B23F021
:1053E00003030433C018844204D9002340F8043B6B
:1053F0008442FBD830BC704702694B1110B49A420A
:105400000446B8BF104612DB10DD11F01F0C0DD0A2
:10541000184604339B00E318596821FA0CF202FA8B
:105420000CF28A4203D0012010BC7047184600F1EC
:10543000040C04F114014FEA8C03E018021D9142A0
:105440000CD254F82C30002BEDD10246914205D2FB
:1054500052F8043D002BE6D19142F9D30020E3E756
:1054600070B5456A06460C464DB13CB1726A60683B
:10547000D16851F82030236041F8204070BD1020E1
:1054800000F036FB7062456085600560C560ECE742
:1054900070B5446A06460D466CB1E168A9B151F891
:1054A0002520002A1DD0136841F825300023136100
:1054B000D360104670BD102000F01AFB0023044694
:1054C0007062436083600360C36004213046102231
:1054D00000F0D6FA736AE060D9680029DFD10A4685
:1054E000E7E70121304611FA05F4621D920000F051
:1054F000C7FA02460028DCD045608460D6E7C04683
:10550000F0B5012183B01D461446FFF7C1FF25F019
:10551000004225F07F4121F470012B46170D0091C8
:105520001CBF41F4801300930646002C1ED002A835
:1055300040F8044DFFF722FE0546002831D1019BBB
:105540007361009B002B14BF022401243461B361FA
:10555000C7B10899A7F58663033BC5F135025B190E
:105560000B60099B1A60304603B0F0BD6846FFF738
:1055700005FE009B012232611446736100F1200593
:10558000002FE6D10899A200B218A5F58663023B68
:1055900010690B60FFF7D2FD099A63011B1A1360B3
:1055A000E1E7009BC0F12002019913FA02F2C34027
:1055B0000A4372610093C4E72DE9F0470B699046F6
:1055C00012690E469F1A002F4FD06CDB002701F1A5
:1055D00014057168FFF75CFF4FF0000EC76081464D
:1055E000376900F114043B1D9B00F31808F1140601
:1055F00003F1040AD8F8103004339B00434403F14C
:10560000040C56F8042B55F8040B1304120C010477
:10561000C2EB10421B0C090CC91AB445714402EBD1
:105620002142628024F8041B4FEA224EE9D85545F6
:105630000ED255F8043B1A041B0C120CAA457244F6
:1056400003EB2243638024F8042B4FEA234EF0D867
:1056500054F8043C33B9224652F8083C013F043A5E
:10566000002BF9D0C9F8107019E0131D01F11405D1
:105670009B00CA184344111D1C1D51F8042C54F8FA
:10568000043C9A420ED10439043C8D42F5D30021EA
:10569000FFF7FEFE01230022814603614261484676
:1056A000BDE8F08795D243460127B04603F11405C3
:1056B0001E468EE72DE9F0470E46541181463369A8
:1056C0001746496801331D19B3689D4203DD5B002D
:1056D00001319D42FBDC4846FFF7DAFE002C804694
:1056E00000F114000ADD00231A4640F8232001339C
:1056F0009C42FADC231D9B004344181D336906F1CC
:10570000140104339B00F31817F01F0403F1040C79
:1057100008BF22461BD0C4F1200E00220B68A34014
:1057200042EA030340F8043B51F8042B8C4522FA6B
:105730000EF2F3D8026002B101356B1E4846C8F87C
:1057400010303146FFF78CFE4046BDE8F0878B589D
:10575000835004328B189C45EFD98B588350043208
:105760008B189C45F3D8E8E72DE9F04F0E691569D1
:105770000C46174685B0AE42B5BF134633461C46AD
:105780002E46ACBF1D460F46A36806EB05086168B0
:105790009845C8BF0131FFF77BFE08F104039B0069
:1057A000C31800F1140B043300909B45019306D2FB
:1057B0005B460022019943F8042B9942FAD82B1D2D
:1057C00007F1140904F1140203929B00E31803F19A
:1057D000040C331D9B00FB180433029399454AD2F5
:1057E0004FF0000E59F80E300BEB0E0A1F043F0C61
:1057F000DFB1039E5446002556F8042B206811049F
:10580000120C0304000C090C1B0C07FB020207FB23
:105810000131491902EB1142628024F8041B150C76
:10582000B445E9D8256059F80E301F0C1CD05BF840
:105830000E305046039D00261C4655F8041B03807D
:105840000A04090C120C02FB076202EB14424280AC
:1058500050F8044F23041B0C01FB073101EB1243EA
:105860001E0CAC45E9D803600EF1040E029909EB59
:105870000E039942B6D8B8F1000F0BDD019A52F829
:10588000043C23B106E052F8083C043A13B918F17D
:10589000FF38F8D1009B1846C3F8108005B0BDE86A
:1058A000F08FC04610B50C460121FFF7F1FD012332
:1058B0004461036110BDC0462DE9F04180460020DF
:1058C0000F460E6901F1140494461D4601466258C4
:1058D00001301304120C1B0C02FB0CF203FB0C53E3
:1058E00002EB13429BB2150C03EB024363500431ED
:1058F0008642ECDC45B1BB689E4208DA331D721C5F
:105900003A619B00FB185D603846BDE8F08179681C
:1059100040460131FFF7BCFD3A6907F10C01023244
:105920009200044600F10C00FDF760FF3946404646
:105930002746FFF795FDE1E712F003032DE9F0415B
:1059400080460F4615462DD1AE101FD0D8F8244002
:10595000002C3FD0A568002D32D016F0010F08D1E1
:10596000761013D02C68A4B12046054616F0010F1E
:10597000F6D039462A464046FFF7F6FE3946044639
:105980004046FFF76DFD76102746EBD13846BDE85F
:10599000F08129462A464046FFF7E6FE2860054684
:1059A0000460E3E7013B47F65804C0F200049B00A3
:1059B000E4180023D4F8C820FFF77EFF0746C3E7AA
:1059C000404640F27121FFF76DFF0023A0600546BD
:1059D0000360C2E7102000F08BF800230446C8F8EB
:1059E0002400436083600360C360B3E72DE9F047A0
:1059F0001546984603F1080248F639630E46C3F689
:105A0000E303074683FB0213D217C2EB6302012AAA
:105A100034DD002101235B0001319A42FBDC384672
:105A2000FFF736FD089B0122092D01464361026103
:105A300021DD06F109090924335D0A2238460134C3
:105A4000303BFFF739FFA5420146F5DC09EB0503C2
:105A5000A3F10806A8450BDD0024335D0A22384671
:105A60000134303BFFF728FF631998450146F4DC09
:105A70000846BDE8F0870A360925EBE70021CEE7A6
:105A800010B501FB02F100F03DF80446F8B150F802
:105A9000043C23F003031A1F242A1AD8132A0146B0
:105AA0000FD9002340F8043B011D1B2A636008D96D
:105AB0004360081D4B60011D242A02BF43604B60F8
:105AC00008310B46002243F8042B4A605A602046F6
:105AD00010BD0021FDF7D6FEF9E7C04640F258039D
